{
  "contractName": "Exchange",
  "abi": [
    {
      "inputs": [
        {
          "internalType": "address",
          "name": "ta",
          "type": "address"
        }
      ],
      "stateMutability": "payable",
      "type": "constructor"
    },
    {
      "inputs": [],
      "name": "eth_pool",
      "outputs": [
        {
          "internalType": "uint256",
          "name": "",
          "type": "uint256"
        }
      ],
      "stateMutability": "view",
      "type": "function"
    },
    {
      "inputs": [],
      "name": "token",
      "outputs": [
        {
          "internalType": "contract ERC20",
          "name": "",
          "type": "address"
        }
      ],
      "stateMutability": "view",
      "type": "function"
    },
    {
      "inputs": [],
      "name": "token_address",
      "outputs": [
        {
          "internalType": "address",
          "name": "",
          "type": "address"
        }
      ],
      "stateMutability": "view",
      "type": "function"
    },
    {
      "inputs": [],
      "name": "token_pool",
      "outputs": [
        {
          "internalType": "uint256",
          "name": "",
          "type": "uint256"
        }
      ],
      "stateMutability": "view",
      "type": "function"
    },
    {
      "stateMutability": "payable",
      "type": "receive"
    },
    {
      "inputs": [],
      "name": "get_eth_pool",
      "outputs": [
        {
          "internalType": "uint256",
          "name": "",
          "type": "uint256"
        }
      ],
      "stateMutability": "view",
      "type": "function"
    },
    {
      "inputs": [],
      "name": "get_token_pool",
      "outputs": [
        {
          "internalType": "uint256",
          "name": "",
          "type": "uint256"
        }
      ],
      "stateMutability": "view",
      "type": "function"
    },
    {
      "inputs": [],
      "name": "eth_to_token",
      "outputs": [],
      "stateMutability": "payable",
      "type": "function"
    },
    {
      "inputs": [
        {
          "internalType": "uint256",
          "name": "tokens_in",
          "type": "uint256"
        }
      ],
      "name": "token_to_eth",
      "outputs": [],
      "stateMutability": "nonpayable",
      "type": "function"
    }
  ],
  "bytecode": "0x6080604052604051610c20380380610c20833981810160405281019061002591906100e4565b80600260006101000a81548173ffffffffffffffffffffffffffffffffffffffff021916908373ffffffffffffffffffffffffffffffffffffffff160217905550600260009054906101000a900473ffffffffffffffffffffffffffffffffffffffff16600360006101000a81548173ffffffffffffffffffffffffffffffffffffffff021916908373ffffffffffffffffffffffffffffffffffffffff16021790555050610156565b6000815190506100de8161013f565b92915050565b6000602082840312156100f657600080fd5b6000610104848285016100cf565b91505092915050565b60006101188261011f565b9050919050565b600073ffffffffffffffffffffffffffffffffffffffff82169050919050565b6101488161010d565b811461015357600080fd5b50565b610abb806101656000396000f3fe60806040526004361061007f5760003560e01c8063c703caf31161004e578063c703caf314610135578063d206330f14610160578063d46e88991461018b578063fc0c546a1461019557610086565b8063056ef2491461008b5780631dcdcbbe146100b657806345f064f6146100e15780638c8e8fee1461010a57610086565b3661008657005b600080fd5b34801561009757600080fd5b506100a06101c0565b6040516100ad919061085d565b60405180910390f35b3480156100c257600080fd5b506100cb6101c6565b6040516100d8919061085d565b60405180910390f35b3480156100ed57600080fd5b5061010860048036038101906101039190610748565b6101ce565b005b34801561011657600080fd5b5061011f6103fa565b60405161012c91906107c7565b60405180910390f35b34801561014157600080fd5b5061014a610420565b604051610157919061085d565b60405180910390f35b34801561016c57600080fd5b50610175610426565b604051610182919061085d565b60405180910390f35b6101936104d8565b005b3480156101a157600080fd5b506101aa6106ba565b6040516101b79190610842565b60405180910390f35b60005481565b600047905090565b47600081905550600360009054906101000a900473ffffffffffffffffffffffffffffffffffffffff1673ffffffffffffffffffffffffffffffffffffffff166370a08231306040518263ffffffff1660e01b815260040161023091906107c7565b60206040518083038186803b15801561024857600080fd5b505afa15801561025c573d6000803e3d6000fd5b505050506040513d601f19601f820116820180604052508101906102809190610771565b60018190555060006101f48261029691906108ce565b905060006001546000546102aa91906108ff565b90506000836001546102bc9190610878565b9050600083826102cc9190610959565b836102d791906108ce565b90506000816000546102e99190610959565b9050600360009054906101000a900473ffffffffffffffffffffffffffffffffffffffff1673ffffffffffffffffffffffffffffffffffffffff166323b872dd3330896040518463ffffffff1660e01b815260040161034a939291906107e2565b602060405180830381600087803b15801561036457600080fd5b505af1158015610378573d6000803e3d6000fd5b505050506040513d601f19601f8201168201806040525081019061039c919061071f565b503373ffffffffffffffffffffffffffffffffffffffff166108fc829081150290604051600060405180830381858888f193505050501580156103e3573d6000803e3d6000fd5b508260018190555081600081905550505050505050565b600260009054906101000a900473ffffffffffffffffffffffffffffffffffffffff1681565b60015481565b6000600360009054906101000a900473ffffffffffffffffffffffffffffffffffffffff1673ffffffffffffffffffffffffffffffffffffffff166370a08231306040518263ffffffff1660e01b815260040161048391906107c7565b60206040518083038186803b15801561049b57600080fd5b505afa1580156104af573d6000803e3d6000fd5b505050506040513d601f19601f820116820180604052508101906104d39190610771565b905090565b47600081905550600360009054906101000a900473ffffffffffffffffffffffffffffffffffffffff1673ffffffffffffffffffffffffffffffffffffffff166370a08231306040518263ffffffff1660e01b815260040161053a91906107c7565b60206040518083038186803b15801561055257600080fd5b505afa158015610566573d6000803e3d6000fd5b505050506040513d601f19601f8201168201806040525081019061058a9190610771565b60018190555060006101f4346105a091906108ce565b905060006001546000546105b491906108ff565b90506000346000546105c69190610878565b9050600083826105d69190610959565b836105e191906108ce565b90506000816001546105f39190610959565b9050600360009054906101000a900473ffffffffffffffffffffffffffffffffffffffff1673ffffffffffffffffffffffffffffffffffffffff1663a9059cbb33836040518363ffffffff1660e01b8152600401610652929190610819565b602060405180830381600087803b15801561066c57600080fd5b505af1158015610680573d6000803e3d6000fd5b505050506040513d601f19601f820116820180604052508101906106a4919061071f565b5081600181905550826000819055505050505050565b600360009054906101000a900473ffffffffffffffffffffffffffffffffffffffff1681565b6000815190506106ef81610a57565b92915050565b60008135905061070481610a6e565b92915050565b60008151905061071981610a6e565b92915050565b60006020828403121561073157600080fd5b600061073f848285016106e0565b91505092915050565b60006020828403121561075a57600080fd5b6000610768848285016106f5565b91505092915050565b60006020828403121561078357600080fd5b60006107918482850161070a565b91505092915050565b6107a38161098d565b82525050565b6107b2816109d5565b82525050565b6107c1816109cb565b82525050565b60006020820190506107dc600083018461079a565b92915050565b60006060820190506107f7600083018661079a565b610804602083018561079a565b61081160408301846107b8565b949350505050565b600060408201905061082e600083018561079a565b61083b60208301846107b8565b9392505050565b600060208201905061085760008301846107a9565b92915050565b600060208201905061087260008301846107b8565b92915050565b6000610883826109cb565b915061088e836109cb565b9250827fffffffffffffffffffffffffffffffffffffffffffffffffffffffffffffffff038211156108c3576108c26109f9565b5b828201905092915050565b60006108d9826109cb565b91506108e4836109cb565b9250826108f4576108f3610a28565b5b828204905092915050565b600061090a826109cb565b9150610915836109cb565b9250817fffffffffffffffffffffffffffffffffffffffffffffffffffffffffffffffff048311821515161561094e5761094d6109f9565b5b828202905092915050565b6000610964826109cb565b915061096f836109cb565b925082821015610982576109816109f9565b5b828203905092915050565b6000610998826109ab565b9050919050565b60008115159050919050565b600073ffffffffffffffffffffffffffffffffffffffff82169050919050565b6000819050919050565b60006109e0826109e7565b9050919050565b60006109f2826109ab565b9050919050565b7f4e487b7100000000000000000000000000000000000000000000000000000000600052601160045260246000fd5b7f4e487b7100000000000000000000000000000000000000000000000000000000600052601260045260246000fd5b610a608161099f565b8114610a6b57600080fd5b50565b610a77816109cb565b8114610a8257600080fd5b5056fea26469706673582212203b611007f4c1e59d0fa1d8c3e680d3525d54c4df45a1bf5d61e0ce29bf18c2ca64736f6c63430008040033",
  "immutableReferences": {},
  "source": "pragma solidity ^0.8.4;\n\nimport \"@openzeppelin/contracts/token/ERC20/ERC20.sol\";\n\ncontract Exchange{\n    uint256 public eth_pool;\n    uint256 public token_pool;\n\n    address public token_address;\n    ERC20 public token;\n\n    constructor(address ta) payable {\n        token_address = ta;\n        token = ERC20(token_address);\n    }\n\n    receive() external payable{\n        \n    }\n\n    function get_eth_pool() public view returns(uint256){\n        return address(this).balance;\n    }\n\n    function get_token_pool() public view returns(uint256){\n        return token.balanceOf(address(this));\n    }\n\n    function eth_to_token() public payable {\n        eth_pool = address(this).balance;\n        token_pool = token.balanceOf(address(this));\n\n        // set variables\n        uint256 fee = msg.value / 500;\n        uint256 invariant = eth_pool * token_pool;\n        uint256 new_eth_pool = eth_pool + msg.value;\n        uint256 new_token_pool = invariant / (new_eth_pool - fee);\n\n        // calculate price\n        uint256 tokens_out = token_pool - new_token_pool;\n\n        // transfer\n        token.transfer(msg.sender, tokens_out);\n        token_pool = new_token_pool;\n        eth_pool = new_eth_pool;\n    }\n\n    function token_to_eth(uint256 tokens_in) public {\n        eth_pool = address(this).balance;\n        token_pool = token.balanceOf(address(this));\n\n        // set variables\n        uint256 fee = tokens_in / 500;\n        uint256 invariant = eth_pool * token_pool;\n        uint256 new_token_pool = token_pool + tokens_in;\n        uint256 new_eth_pool = invariant / (new_token_pool - fee);\n\n        // calculate price\n        uint256 eth_out = eth_pool - new_eth_pool;\n\n        // transfer\n        token.transferFrom(msg.sender, address(this), tokens_in);\n        payable(msg.sender).transfer(eth_out);\n        token_pool = new_token_pool;\n        eth_pool = new_eth_pool;\n    }\n}",
  "sourcePath": "/home/will/dev/defi_test/contracts/Exchange.sol",
  "compiler": {
    "name": "solc",
    "version": "0.8.4+commit.c7e474f2.Emscripten.clang"
  },
  "schemaVersion": "3.4.7",
  "updatedAt": "2022-05-02T15:06:12.097Z",
  "networkType": "ethereum",
  "devdoc": {
    "kind": "dev",
    "methods": {},
    "version": 1
  },
  "userdoc": {
    "kind": "user",
    "methods": {},
    "version": 1
  }
}