{
  "contractName": "Factory",
  "abi": [
    {
      "inputs": [],
      "stateMutability": "nonpayable",
      "type": "constructor"
    },
    {
      "inputs": [
        {
          "internalType": "address",
          "name": "",
          "type": "address"
        }
      ],
      "name": "exchangeBank",
      "outputs": [
        {
          "internalType": "address",
          "name": "",
          "type": "address"
        }
      ],
      "stateMutability": "view",
      "type": "function",
      "constant": true
    },
    {
      "inputs": [
        {
          "internalType": "address",
          "name": "",
          "type": "address"
        }
      ],
      "name": "registered",
      "outputs": [
        {
          "internalType": "bool",
          "name": "",
          "type": "bool"
        }
      ],
      "stateMutability": "view",
      "type": "function",
      "constant": true
    },
    {
      "inputs": [
        {
          "internalType": "address",
          "name": "token_address",
          "type": "address"
        },
        {
          "internalType": "uint256",
          "name": "initial_pool",
          "type": "uint256"
        }
      ],
      "name": "createExchange",
      "outputs": [
        {
          "internalType": "address",
          "name": "",
          "type": "address"
        }
      ],
      "stateMutability": "payable",
      "type": "function",
      "payable": true
    },
    {
      "inputs": [
        {
          "internalType": "address",
          "name": "token_address",
          "type": "address"
        }
      ],
      "name": "get_token_exchange",
      "outputs": [
        {
          "internalType": "address",
          "name": "",
          "type": "address"
        }
      ],
      "stateMutability": "view",
      "type": "function",
      "constant": true
    }
  ],
  "bytecode": "0x608060405234801561001057600080fd5b50611471806100206000396000f3fe60806040526004361061003f5760003560e01c8063433c817c14610044578063b2dd5c0714610074578063d66f7e2c146100b1578063e1ac499f146100ee575b600080fd5b61005e600480360381019061005991906105cc565b61012b565b60405161006b91906106b9565b60405180910390f35b34801561008057600080fd5b5061009b600480360381019061009691906105a3565b610440565b6040516100a8919061070b565b60405180910390f35b3480156100bd57600080fd5b506100d860048036038101906100d391906105a3565b610460565b6040516100e591906106b9565b60405180910390f35b3480156100fa57600080fd5b50610115600480360381019061011091906105a3565b610493565b60405161012291906106b9565b60405180910390f35b60008060008473ffffffffffffffffffffffffffffffffffffffff1673ffffffffffffffffffffffffffffffffffffffff16815260200190815260200160002060009054906101000a900460ff16156101e557600160008473ffffffffffffffffffffffffffffffffffffffff1673ffffffffffffffffffffffffffffffffffffffff16815260200190815260200160002060009054906101000a900473ffffffffffffffffffffffffffffffffffffffff16905061043a565b60008390506000846040516101f990610557565b61020391906106b9565b604051809103906000f08015801561021f573d6000803e3d6000fd5b5090508173ffffffffffffffffffffffffffffffffffffffff166323b872dd3383876040518463ffffffff1660e01b815260040161025f939291906106d4565b602060405180830381600087803b15801561027957600080fd5b505af115801561028d573d6000803e3d6000fd5b505050506040513d601f19601f820116820180604052508101906102b19190610608565b5060008173ffffffffffffffffffffffffffffffffffffffff16346040516102d8906106a4565b60006040518083038185875af1925050503d8060008114610315576040519150601f19603f3d011682016040523d82523d6000602084013e61031a565b606091505b505090508061035e576040517f08c379a000000000000000000000000000000000000000000000000000000000815260040161035590610726565b60405180910390fd5b81600160008873ffffffffffffffffffffffffffffffffffffffff1673ffffffffffffffffffffffffffffffffffffffff16815260200190815260200160002060006101000a81548173ffffffffffffffffffffffffffffffffffffffff021916908373ffffffffffffffffffffffffffffffffffffffff16021790555060016000808873ffffffffffffffffffffffffffffffffffffffff1673ffffffffffffffffffffffffffffffffffffffff16815260200190815260200160002060006101000a81548160ff0219169083151502179055508193505050505b92915050565b60006020528060005260406000206000915054906101000a900460ff1681565b60016020528060005260406000206000915054906101000a900473ffffffffffffffffffffffffffffffffffffffff1681565b60008060008373ffffffffffffffffffffffffffffffffffffffff1673ffffffffffffffffffffffffffffffffffffffff16815260200190815260200160002060009054906101000a900460ff161561054d57600160008373ffffffffffffffffffffffffffffffffffffffff1673ffffffffffffffffffffffffffffffffffffffff16815260200190815260200160002060009054906101000a900473ffffffffffffffffffffffffffffffffffffffff169050610552565b600080fd5b919050565b610c208061081c83390190565b600081359050610573816107d6565b92915050565b600081519050610588816107ed565b92915050565b60008135905061059d81610804565b92915050565b6000602082840312156105b557600080fd5b60006105c384828501610564565b91505092915050565b600080604083850312156105df57600080fd5b60006105ed85828601610564565b92505060206105fe8582860161058e565b9150509250929050565b60006020828403121561061a57600080fd5b600061062884828501610579565b91505092915050565b61063a81610762565b82525050565b61064981610774565b82525050565b600061065c600e83610751565b9150610667826107aa565b602082019050919050565b600061067f600083610746565b915061068a826107d3565b600082019050919050565b61069e816107a0565b82525050565b60006106af82610672565b9150819050919050565b60006020820190506106ce6000830184610631565b92915050565b60006060820190506106e96000830186610631565b6106f66020830185610631565b6107036040830184610695565b949350505050565b60006020820190506107206000830184610640565b92915050565b6000602082019050818103600083015261073f8161064f565b9050919050565b600081905092915050565b600082825260208201905092915050565b600061076d82610780565b9050919050565b60008115159050919050565b600073ffffffffffffffffffffffffffffffffffffffff82169050919050565b6000819050919050565b7f65727220706179696e6720657468000000000000000000000000000000000000600082015250565b50565b6107df81610762565b81146107ea57600080fd5b50565b6107f681610774565b811461080157600080fd5b50565b61080d816107a0565b811461081857600080fd5b5056fe6080604052604051610c20380380610c20833981810160405281019061002591906100e4565b80600260006101000a81548173ffffffffffffffffffffffffffffffffffffffff021916908373ffffffffffffffffffffffffffffffffffffffff160217905550600260009054906101000a900473ffffffffffffffffffffffffffffffffffffffff16600360006101000a81548173ffffffffffffffffffffffffffffffffffffffff021916908373ffffffffffffffffffffffffffffffffffffffff16021790555050610156565b6000815190506100de8161013f565b92915050565b6000602082840312156100f657600080fd5b6000610104848285016100cf565b91505092915050565b60006101188261011f565b9050919050565b600073ffffffffffffffffffffffffffffffffffffffff82169050919050565b6101488161010d565b811461015357600080fd5b50565b610abb806101656000396000f3fe60806040526004361061007f5760003560e01c8063c703caf31161004e578063c703caf314610135578063d206330f14610160578063d46e88991461018b578063fc0c546a1461019557610086565b8063056ef2491461008b5780631dcdcbbe146100b657806345f064f6146100e15780638c8e8fee1461010a57610086565b3661008657005b600080fd5b34801561009757600080fd5b506100a06101c0565b6040516100ad919061085d565b60405180910390f35b3480156100c257600080fd5b506100cb6101c6565b6040516100d8919061085d565b60405180910390f35b3480156100ed57600080fd5b5061010860048036038101906101039190610748565b6101ce565b005b34801561011657600080fd5b5061011f6103fa565b60405161012c91906107c7565b60405180910390f35b34801561014157600080fd5b5061014a610420565b604051610157919061085d565b60405180910390f35b34801561016c57600080fd5b50610175610426565b604051610182919061085d565b60405180910390f35b6101936104d8565b005b3480156101a157600080fd5b506101aa6106ba565b6040516101b79190610842565b60405180910390f35b60005481565b600047905090565b47600081905550600360009054906101000a900473ffffffffffffffffffffffffffffffffffffffff1673ffffffffffffffffffffffffffffffffffffffff166370a08231306040518263ffffffff1660e01b815260040161023091906107c7565b60206040518083038186803b15801561024857600080fd5b505afa15801561025c573d6000803e3d6000fd5b505050506040513d601f19601f820116820180604052508101906102809190610771565b60018190555060006101f48261029691906108ce565b905060006001546000546102aa91906108ff565b90506000836001546102bc9190610878565b9050600083826102cc9190610959565b836102d791906108ce565b90506000816000546102e99190610959565b9050600360009054906101000a900473ffffffffffffffffffffffffffffffffffffffff1673ffffffffffffffffffffffffffffffffffffffff166323b872dd3330896040518463ffffffff1660e01b815260040161034a939291906107e2565b602060405180830381600087803b15801561036457600080fd5b505af1158015610378573d6000803e3d6000fd5b505050506040513d601f19601f8201168201806040525081019061039c919061071f565b503373ffffffffffffffffffffffffffffffffffffffff166108fc829081150290604051600060405180830381858888f193505050501580156103e3573d6000803e3d6000fd5b508260018190555081600081905550505050505050565b600260009054906101000a900473ffffffffffffffffffffffffffffffffffffffff1681565b60015481565b6000600360009054906101000a900473ffffffffffffffffffffffffffffffffffffffff1673ffffffffffffffffffffffffffffffffffffffff166370a08231306040518263ffffffff1660e01b815260040161048391906107c7565b60206040518083038186803b15801561049b57600080fd5b505afa1580156104af573d6000803e3d6000fd5b505050506040513d601f19601f820116820180604052508101906104d39190610771565b905090565b47600081905550600360009054906101000a900473ffffffffffffffffffffffffffffffffffffffff1673ffffffffffffffffffffffffffffffffffffffff166370a08231306040518263ffffffff1660e01b815260040161053a91906107c7565b60206040518083038186803b15801561055257600080fd5b505afa158015610566573d6000803e3d6000fd5b505050506040513d601f19601f8201168201806040525081019061058a9190610771565b60018190555060006101f4346105a091906108ce565b905060006001546000546105b491906108ff565b90506000346000546105c69190610878565b9050600083826105d69190610959565b836105e191906108ce565b90506000816001546105f39190610959565b9050600360009054906101000a900473ffffffffffffffffffffffffffffffffffffffff1673ffffffffffffffffffffffffffffffffffffffff1663a9059cbb33836040518363ffffffff1660e01b8152600401610652929190610819565b602060405180830381600087803b15801561066c57600080fd5b505af1158015610680573d6000803e3d6000fd5b505050506040513d601f19601f820116820180604052508101906106a4919061071f565b5081600181905550826000819055505050505050565b600360009054906101000a900473ffffffffffffffffffffffffffffffffffffffff1681565b6000815190506106ef81610a57565b92915050565b60008135905061070481610a6e565b92915050565b60008151905061071981610a6e565b92915050565b60006020828403121561073157600080fd5b600061073f848285016106e0565b91505092915050565b60006020828403121561075a57600080fd5b6000610768848285016106f5565b91505092915050565b60006020828403121561078357600080fd5b60006107918482850161070a565b91505092915050565b6107a38161098d565b82525050565b6107b2816109d5565b82525050565b6107c1816109cb565b82525050565b60006020820190506107dc600083018461079a565b92915050565b60006060820190506107f7600083018661079a565b610804602083018561079a565b61081160408301846107b8565b949350505050565b600060408201905061082e600083018561079a565b61083b60208301846107b8565b9392505050565b600060208201905061085760008301846107a9565b92915050565b600060208201905061087260008301846107b8565b92915050565b6000610883826109cb565b915061088e836109cb565b9250827fffffffffffffffffffffffffffffffffffffffffffffffffffffffffffffffff038211156108c3576108c26109f9565b5b828201905092915050565b60006108d9826109cb565b91506108e4836109cb565b9250826108f4576108f3610a28565b5b828204905092915050565b600061090a826109cb565b9150610915836109cb565b9250817fffffffffffffffffffffffffffffffffffffffffffffffffffffffffffffffff048311821515161561094e5761094d6109f9565b5b828202905092915050565b6000610964826109cb565b915061096f836109cb565b925082821015610982576109816109f9565b5b828203905092915050565b6000610998826109ab565b9050919050565b60008115159050919050565b600073ffffffffffffffffffffffffffffffffffffffff82169050919050565b6000819050919050565b60006109e0826109e7565b9050919050565b60006109f2826109ab565b9050919050565b7f4e487b7100000000000000000000000000000000000000000000000000000000600052601160045260246000fd5b7f4e487b7100000000000000000000000000000000000000000000000000000000600052601260045260246000fd5b610a608161099f565b8114610a6b57600080fd5b50565b610a77816109cb565b8114610a8257600080fd5b5056fea26469706673582212203b611007f4c1e59d0fa1d8c3e680d3525d54c4df45a1bf5d61e0ce29bf18c2ca64736f6c63430008040033a26469706673582212205a1d29bd985f1671d01e76229c83500d96a825585a30d8520400cce06010bad764736f6c63430008040033",
  "immutableReferences": {},
  "source": "pragma solidity ^0.8.4;\n\nimport \"@openzeppelin/contracts/token/ERC20/ERC20.sol\";\nimport \"./Exchange.sol\";\n\n// 500000000000000000000\ncontract Factory{\n    mapping(address=>bool) public registered;\n    mapping(address=>address) public exchangeBank;\n\n    constructor() {\n\n    }\n\n    function createExchange(address token_address, uint256 initial_pool) public payable\n        returns(address)\n    {\n        if(registered[token_address]){\n            return exchangeBank[token_address];\n        }else{\n            ERC20 token = ERC20(token_address);\n            address new_exchange_address = address(new Exchange(token_address));\n\n            token.transferFrom(msg.sender, new_exchange_address, initial_pool);\n            (bool success, ) = payable(new_exchange_address).call{value: msg.value}(\"\");\n            require(success, \"err paying eth\");\n\n            exchangeBank[token_address] = new_exchange_address;\n            registered[token_address] = true;\n\n            return new_exchange_address;\n        }\n    }\n\n    function get_token_exchange(address token_address) public view returns(address){\n        if(registered[token_address]){\n            return exchangeBank[token_address];\n        }\n        else{\n            revert();\n        }\n    }\n}",
  "sourcePath": "/home/will/dev/defi_test/contracts/Factory.sol",
  "compiler": {
    "name": "solc",
    "version": "0.8.4+commit.c7e474f2.Emscripten.clang"
  },
  "schemaVersion": "3.4.7",
  "updatedAt": "2022-05-02T15:06:12.110Z",
  "networkType": "ethereum",
  "devdoc": {
    "kind": "dev",
    "methods": {},
    "version": 1
  },
  "userdoc": {
    "kind": "user",
    "methods": {},
    "version": 1
  }
}